{
	"Conceptos/Splitpayment.sol": {
		"Splipayment": {
			"abi": [
				{
					"inputs": [
						{
							"internalType": "address",
							"name": "_owner",
							"type": "address"
						}
					],
					"stateMutability": "nonpayable",
					"type": "constructor"
				},
				{
					"inputs": [],
					"name": "owner",
					"outputs": [
						{
							"internalType": "address",
							"name": "",
							"type": "address"
						}
					],
					"stateMutability": "view",
					"type": "function"
				},
				{
					"inputs": [
						{
							"internalType": "address payable[]",
							"name": "to",
							"type": "address[]"
						},
						{
							"internalType": "uint256[]",
							"name": "amount",
							"type": "uint256[]"
						}
					],
					"name": "send",
					"outputs": [],
					"stateMutability": "payable",
					"type": "function"
				}
			],
			"devdoc": {
				"kind": "dev",
				"methods": {},
				"version": 1
			},
			"evm": {
				"assembly": "    /* \"Conceptos/Splitpayment.sol\":113:1080  contract Splipayment{... */\n  mstore(0x40, 0x80)\n    /* \"Conceptos/Splitpayment.sol\":283:359  constructor(address _owner){... */\n  callvalue\n  dup1\n  iszero\n  tag_1\n  jumpi\n  0x00\n  dup1\n  revert\ntag_1:\n  pop\n  mload(0x40)\n  sub(codesize, bytecodeSize)\n  dup1\n  bytecodeSize\n  dup4\n  codecopy\n  dup2\n  dup2\n  add\n  0x40\n  mstore\n  dup2\n  add\n  swap1\n  tag_2\n  swap2\n  swap1\n  tag_3\n  jump\t// in\ntag_2:\n    /* \"Conceptos/Splitpayment.sol\":337:343  _owner */\n  dup1\n    /* \"Conceptos/Splitpayment.sol\":329:334  owner */\n  0x00\n  dup1\n    /* \"Conceptos/Splitpayment.sol\":329:343  owner = _owner */\n  0x0100\n  exp\n  dup2\n  sload\n  dup2\n  0xffffffffffffffffffffffffffffffffffffffff\n  mul\n  not\n  and\n  swap1\n  dup4\n  0xffffffffffffffffffffffffffffffffffffffff\n  and\n  mul\n  or\n  swap1\n  sstore\n  pop\n    /* \"Conceptos/Splitpayment.sol\":283:359  constructor(address _owner){... */\n  pop\n    /* \"Conceptos/Splitpayment.sol\":113:1080  contract Splipayment{... */\n  jump(tag_6)\n    /* \"#utility.yul\":88:205   */\ntag_8:\n    /* \"#utility.yul\":197:198   */\n  0x00\n    /* \"#utility.yul\":194:195   */\n  dup1\n    /* \"#utility.yul\":187:199   */\n  revert\n    /* \"#utility.yul\":334:460   */\ntag_10:\n    /* \"#utility.yul\":371:378   */\n  0x00\n    /* \"#utility.yul\":411:453   */\n  0xffffffffffffffffffffffffffffffffffffffff\n    /* \"#utility.yul\":404:409   */\n  dup3\n    /* \"#utility.yul\":400:454   */\n  and\n    /* \"#utility.yul\":389:454   */\n  swap1\n  pop\n    /* \"#utility.yul\":334:460   */\n  swap2\n  swap1\n  pop\n  jump\t// out\n    /* \"#utility.yul\":466:562   */\ntag_11:\n    /* \"#utility.yul\":503:510   */\n  0x00\n    /* \"#utility.yul\":532:556   */\n  tag_20\n    /* \"#utility.yul\":550:555   */\n  dup3\n    /* \"#utility.yul\":532:556   */\n  tag_10\n  jump\t// in\ntag_20:\n    /* \"#utility.yul\":521:556   */\n  swap1\n  pop\n    /* \"#utility.yul\":466:562   */\n  swap2\n  swap1\n  pop\n  jump\t// out\n    /* \"#utility.yul\":568:690   */\ntag_12:\n    /* \"#utility.yul\":641:665   */\n  tag_22\n    /* \"#utility.yul\":659:664   */\n  dup2\n    /* \"#utility.yul\":641:665   */\n  tag_11\n  jump\t// in\ntag_22:\n    /* \"#utility.yul\":634:639   */\n  dup2\n    /* \"#utility.yul\":631:666   */\n  eq\n    /* \"#utility.yul\":621:684   */\n  tag_23\n  jumpi\n    /* \"#utility.yul\":680:681   */\n  0x00\n    /* \"#utility.yul\":677:678   */\n  dup1\n    /* \"#utility.yul\":670:682   */\n  revert\n    /* \"#utility.yul\":621:684   */\ntag_23:\n    /* \"#utility.yul\":568:690   */\n  pop\n  jump\t// out\n    /* \"#utility.yul\":696:839   */\ntag_13:\n    /* \"#utility.yul\":753:758   */\n  0x00\n    /* \"#utility.yul\":784:790   */\n  dup2\n    /* \"#utility.yul\":778:791   */\n  mload\n    /* \"#utility.yul\":769:791   */\n  swap1\n  pop\n    /* \"#utility.yul\":800:833   */\n  tag_25\n    /* \"#utility.yul\":827:832   */\n  dup2\n    /* \"#utility.yul\":800:833   */\n  tag_12\n  jump\t// in\ntag_25:\n    /* \"#utility.yul\":696:839   */\n  swap3\n  swap2\n  pop\n  pop\n  jump\t// out\n    /* \"#utility.yul\":845:1196   */\ntag_3:\n    /* \"#utility.yul\":915:921   */\n  0x00\n    /* \"#utility.yul\":964:966   */\n  0x20\n    /* \"#utility.yul\":952:961   */\n  dup3\n    /* \"#utility.yul\":943:950   */\n  dup5\n    /* \"#utility.yul\":939:962   */\n  sub\n    /* \"#utility.yul\":935:967   */\n  slt\n    /* \"#utility.yul\":932:1051   */\n  iszero\n  tag_27\n  jumpi\n    /* \"#utility.yul\":970:1049   */\n  tag_28\n  tag_8\n  jump\t// in\ntag_28:\n    /* \"#utility.yul\":932:1051   */\ntag_27:\n    /* \"#utility.yul\":1090:1091   */\n  0x00\n    /* \"#utility.yul\":1115:1179   */\n  tag_29\n    /* \"#utility.yul\":1171:1178   */\n  dup5\n    /* \"#utility.yul\":1162:1168   */\n  dup3\n    /* \"#utility.yul\":1151:1160   */\n  dup6\n    /* \"#utility.yul\":1147:1169   */\n  add\n    /* \"#utility.yul\":1115:1179   */\n  tag_13\n  jump\t// in\ntag_29:\n    /* \"#utility.yul\":1105:1179   */\n  swap2\n  pop\n    /* \"#utility.yul\":1061:1189   */\n  pop\n    /* \"#utility.yul\":845:1196   */\n  swap3\n  swap2\n  pop\n  pop\n  jump\t// out\n    /* \"Conceptos/Splitpayment.sol\":113:1080  contract Splipayment{... */\ntag_6:\n  dataSize(sub_0)\n  dup1\n  dataOffset(sub_0)\n  0x00\n  codecopy\n  0x00\n  return\nstop\n\nsub_0: assembly {\n        /* \"Conceptos/Splitpayment.sol\":113:1080  contract Splipayment{... */\n      mstore(0x40, 0x80)\n      jumpi(tag_1, lt(calldatasize, 0x04))\n      shr(0xe0, calldataload(0x00))\n      dup1\n      0x8da5cb5b\n      eq\n      tag_2\n      jumpi\n      dup1\n      0xa645ff5f\n      eq\n      tag_3\n      jumpi\n    tag_1:\n      0x00\n      dup1\n      revert\n        /* \"Conceptos/Splitpayment.sol\":192:212  address public owner */\n    tag_2:\n      callvalue\n      dup1\n      iszero\n      tag_4\n      jumpi\n      0x00\n      dup1\n      revert\n    tag_4:\n      pop\n      tag_5\n      tag_6\n      jump\t// in\n    tag_5:\n      mload(0x40)\n      tag_7\n      swap2\n      swap1\n      tag_8\n      jump\t// in\n    tag_7:\n      mload(0x40)\n      dup1\n      swap2\n      sub\n      swap1\n      return\n        /* \"Conceptos/Splitpayment.sol\":436:871  function send(address payable [] memory to, uint[] memory amount) payable onlyOwner public {... */\n    tag_3:\n      tag_9\n      0x04\n      dup1\n      calldatasize\n      sub\n      dup2\n      add\n      swap1\n      tag_10\n      swap2\n      swap1\n      tag_11\n      jump\t// in\n    tag_10:\n      tag_12\n      jump\t// in\n    tag_9:\n      stop\n        /* \"Conceptos/Splitpayment.sol\":192:212  address public owner */\n    tag_6:\n      0x00\n      dup1\n      sload\n      swap1\n      0x0100\n      exp\n      swap1\n      div\n      0xffffffffffffffffffffffffffffffffffffffff\n      and\n      dup2\n      jump\t// out\n        /* \"Conceptos/Splitpayment.sol\":436:871  function send(address payable [] memory to, uint[] memory amount) payable onlyOwner public {... */\n    tag_12:\n        /* \"Conceptos/Splitpayment.sol\":992:997  owner */\n      0x00\n      dup1\n      sload\n      swap1\n      0x0100\n      exp\n      swap1\n      div\n      0xffffffffffffffffffffffffffffffffffffffff\n      and\n        /* \"Conceptos/Splitpayment.sol\":980:997  msg.sender==owner */\n      0xffffffffffffffffffffffffffffffffffffffff\n      and\n        /* \"Conceptos/Splitpayment.sol\":980:990  msg.sender */\n      caller\n        /* \"Conceptos/Splitpayment.sol\":980:997  msg.sender==owner */\n      0xffffffffffffffffffffffffffffffffffffffff\n      and\n      eq\n        /* \"Conceptos/Splitpayment.sol\":972:1041  require(msg.sender==owner, \"Solo el propietario puede enviar dinero\") */\n      tag_14\n      jumpi\n      mload(0x40)\n      0x08c379a000000000000000000000000000000000000000000000000000000000\n      dup2\n      mstore\n      0x04\n      add\n      tag_15\n      swap1\n      tag_16\n      jump\t// in\n    tag_15:\n      mload(0x40)\n      dup1\n      swap2\n      sub\n      swap1\n      revert\n    tag_14:\n        /* \"Conceptos/Splitpayment.sol\":667:673  amount */\n      dup1\n        /* \"Conceptos/Splitpayment.sol\":667:680  amount.length */\n      mload\n        /* \"Conceptos/Splitpayment.sol\":654:656  to */\n      dup3\n        /* \"Conceptos/Splitpayment.sol\":654:663  to.length */\n      mload\n        /* \"Conceptos/Splitpayment.sol\":654:680  to.length == amount.length */\n      eq\n        /* \"Conceptos/Splitpayment.sol\":646:739  require(to.length == amount.length, \"to o el amount de las arrays siempre deben ser iguales\") */\n      tag_18\n      jumpi\n      mload(0x40)\n      0x08c379a000000000000000000000000000000000000000000000000000000000\n      dup2\n      mstore\n      0x04\n      add\n      tag_19\n      swap1\n      tag_20\n      jump\t// in\n    tag_19:\n      mload(0x40)\n      dup1\n      swap2\n      sub\n      swap1\n      revert\n    tag_18:\n        /* \"Conceptos/Splitpayment.sol\":762:768  uint i */\n      0x00\n        /* \"Conceptos/Splitpayment.sol\":758:856  for(uint i=0; i<to.length;i++){... */\n    tag_21:\n        /* \"Conceptos/Splitpayment.sol\":774:776  to */\n      dup3\n        /* \"Conceptos/Splitpayment.sol\":774:783  to.length */\n      mload\n        /* \"Conceptos/Splitpayment.sol\":772:773  i */\n      dup2\n        /* \"Conceptos/Splitpayment.sol\":772:783  i<to.length */\n      lt\n        /* \"Conceptos/Splitpayment.sol\":758:856  for(uint i=0; i<to.length;i++){... */\n      iszero\n      tag_22\n      jumpi\n        /* \"Conceptos/Splitpayment.sol\":811:813  to */\n      dup3\n        /* \"Conceptos/Splitpayment.sol\":814:815  i */\n      dup2\n        /* \"Conceptos/Splitpayment.sol\":811:816  to[i] */\n      dup2\n      mload\n      dup2\n      lt\n      tag_24\n      jumpi\n      tag_25\n      tag_26\n      jump\t// in\n    tag_25:\n    tag_24:\n      0x20\n      mul\n      0x20\n      add\n      add\n      mload\n        /* \"Conceptos/Splitpayment.sol\":811:825  to[i].transfer */\n      0xffffffffffffffffffffffffffffffffffffffff\n      and\n        /* \"Conceptos/Splitpayment.sol\":811:836  to[i].transfer(amount[i]) */\n      0x08fc\n        /* \"Conceptos/Splitpayment.sol\":826:832  amount */\n      dup4\n        /* \"Conceptos/Splitpayment.sol\":833:834  i */\n      dup4\n        /* \"Conceptos/Splitpayment.sol\":826:835  amount[i] */\n      dup2\n      mload\n      dup2\n      lt\n      tag_27\n      jumpi\n      tag_28\n      tag_26\n      jump\t// in\n    tag_28:\n    tag_27:\n      0x20\n      mul\n      0x20\n      add\n      add\n      mload\n        /* \"Conceptos/Splitpayment.sol\":811:836  to[i].transfer(amount[i]) */\n      swap1\n      dup2\n      iszero\n      mul\n      swap1\n      mload(0x40)\n      0x00\n      mload(0x40)\n      dup1\n      dup4\n      sub\n      dup2\n      dup6\n      dup9\n      dup9\n      call\n      swap4\n      pop\n      pop\n      pop\n      pop\n      iszero\n      dup1\n      iszero\n      tag_30\n      jumpi\n      returndatasize\n      0x00\n      dup1\n      returndatacopy\n      revert(0x00, returndatasize)\n    tag_30:\n      pop\n        /* \"Conceptos/Splitpayment.sol\":784:787  i++ */\n      dup1\n      dup1\n      0x01\n      add\n      swap2\n      pop\n      pop\n        /* \"Conceptos/Splitpayment.sol\":758:856  for(uint i=0; i<to.length;i++){... */\n      jump(tag_21)\n    tag_22:\n      pop\n        /* \"Conceptos/Splitpayment.sol\":436:871  function send(address payable [] memory to, uint[] memory amount) payable onlyOwner public {... */\n      pop\n      pop\n      jump\t// out\n        /* \"#utility.yul\":7:133   */\n    tag_31:\n        /* \"#utility.yul\":44:51   */\n      0x00\n        /* \"#utility.yul\":84:126   */\n      0xffffffffffffffffffffffffffffffffffffffff\n        /* \"#utility.yul\":77:82   */\n      dup3\n        /* \"#utility.yul\":73:127   */\n      and\n        /* \"#utility.yul\":62:127   */\n      swap1\n      pop\n        /* \"#utility.yul\":7:133   */\n      swap2\n      swap1\n      pop\n      jump\t// out\n        /* \"#utility.yul\":139:235   */\n    tag_32:\n        /* \"#utility.yul\":176:183   */\n      0x00\n        /* \"#utility.yul\":205:229   */\n      tag_63\n        /* \"#utility.yul\":223:228   */\n      dup3\n        /* \"#utility.yul\":205:229   */\n      tag_31\n      jump\t// in\n    tag_63:\n        /* \"#utility.yul\":194:229   */\n      swap1\n      pop\n        /* \"#utility.yul\":139:235   */\n      swap2\n      swap1\n      pop\n      jump\t// out\n        /* \"#utility.yul\":241:359   */\n    tag_33:\n        /* \"#utility.yul\":328:352   */\n      tag_65\n        /* \"#utility.yul\":346:351   */\n      dup2\n        /* \"#utility.yul\":328:352   */\n      tag_32\n      jump\t// in\n    tag_65:\n        /* \"#utility.yul\":323:326   */\n      dup3\n        /* \"#utility.yul\":316:353   */\n      mstore\n        /* \"#utility.yul\":241:359   */\n      pop\n      pop\n      jump\t// out\n        /* \"#utility.yul\":365:587   */\n    tag_8:\n        /* \"#utility.yul\":458:462   */\n      0x00\n        /* \"#utility.yul\":496:498   */\n      0x20\n        /* \"#utility.yul\":485:494   */\n      dup3\n        /* \"#utility.yul\":481:499   */\n      add\n        /* \"#utility.yul\":473:499   */\n      swap1\n      pop\n        /* \"#utility.yul\":509:580   */\n      tag_67\n        /* \"#utility.yul\":577:578   */\n      0x00\n        /* \"#utility.yul\":566:575   */\n      dup4\n        /* \"#utility.yul\":562:579   */\n      add\n        /* \"#utility.yul\":553:559   */\n      dup5\n        /* \"#utility.yul\":509:580   */\n      tag_33\n      jump\t// in\n    tag_67:\n        /* \"#utility.yul\":365:587   */\n      swap3\n      swap2\n      pop\n      pop\n      jump\t// out\n        /* \"#utility.yul\":593:668   */\n    tag_34:\n        /* \"#utility.yul\":626:632   */\n      0x00\n        /* \"#utility.yul\":659:661   */\n      0x40\n        /* \"#utility.yul\":653:662   */\n      mload\n        /* \"#utility.yul\":643:662   */\n      swap1\n      pop\n        /* \"#utility.yul\":593:668   */\n      swap1\n      jump\t// out\n        /* \"#utility.yul\":674:791   */\n    tag_35:\n        /* \"#utility.yul\":783:784   */\n      0x00\n        /* \"#utility.yul\":780:781   */\n      dup1\n        /* \"#utility.yul\":773:785   */\n      revert\n        /* \"#utility.yul\":797:914   */\n    tag_36:\n        /* \"#utility.yul\":906:907   */\n      0x00\n        /* \"#utility.yul\":903:904   */\n      dup1\n        /* \"#utility.yul\":896:908   */\n      revert\n        /* \"#utility.yul\":920:1037   */\n    tag_37:\n        /* \"#utility.yul\":1029:1030   */\n      0x00\n        /* \"#utility.yul\":1026:1027   */\n      dup1\n        /* \"#utility.yul\":1019:1031   */\n      revert\n        /* \"#utility.yul\":1043:1145   */\n    tag_38:\n        /* \"#utility.yul\":1084:1090   */\n      0x00\n        /* \"#utility.yul\":1135:1137   */\n      0x1f\n        /* \"#utility.yul\":1131:1138   */\n      not\n        /* \"#utility.yul\":1126:1128   */\n      0x1f\n        /* \"#utility.yul\":1119:1124   */\n      dup4\n        /* \"#utility.yul\":1115:1129   */\n      add\n        /* \"#utility.yul\":1111:1139   */\n      and\n        /* \"#utility.yul\":1101:1139   */\n      swap1\n      pop\n        /* \"#utility.yul\":1043:1145   */\n      swap2\n      swap1\n      pop\n      jump\t// out\n        /* \"#utility.yul\":1151:1331   */\n    tag_39:\n        /* \"#utility.yul\":1199:1276   */\n      0x4e487b7100000000000000000000000000000000000000000000000000000000\n        /* \"#utility.yul\":1196:1197   */\n      0x00\n        /* \"#utility.yul\":1189:1277   */\n      mstore\n        /* \"#utility.yul\":1296:1300   */\n      0x41\n        /* \"#utility.yul\":1293:1294   */\n      0x04\n        /* \"#utility.yul\":1286:1301   */\n      mstore\n        /* \"#utility.yul\":1320:1324   */\n      0x24\n        /* \"#utility.yul\":1317:1318   */\n      0x00\n        /* \"#utility.yul\":1310:1325   */\n      revert\n        /* \"#utility.yul\":1337:1618   */\n    tag_40:\n        /* \"#utility.yul\":1420:1447   */\n      tag_75\n        /* \"#utility.yul\":1442:1446   */\n      dup3\n        /* \"#utility.yul\":1420:1447   */\n      tag_38\n      jump\t// in\n    tag_75:\n        /* \"#utility.yul\":1412:1418   */\n      dup2\n        /* \"#utility.yul\":1408:1448   */\n      add\n        /* \"#utility.yul\":1550:1556   */\n      dup2\n        /* \"#utility.yul\":1538:1548   */\n      dup2\n        /* \"#utility.yul\":1535:1557   */\n      lt\n        /* \"#utility.yul\":1514:1532   */\n      0xffffffffffffffff\n        /* \"#utility.yul\":1502:1512   */\n      dup3\n        /* \"#utility.yul\":1499:1533   */\n      gt\n        /* \"#utility.yul\":1496:1558   */\n      or\n        /* \"#utility.yul\":1493:1581   */\n      iszero\n      tag_76\n      jumpi\n        /* \"#utility.yul\":1561:1579   */\n      tag_77\n      tag_39\n      jump\t// in\n    tag_77:\n        /* \"#utility.yul\":1493:1581   */\n    tag_76:\n        /* \"#utility.yul\":1601:1611   */\n      dup1\n        /* \"#utility.yul\":1597:1599   */\n      0x40\n        /* \"#utility.yul\":1590:1612   */\n      mstore\n        /* \"#utility.yul\":1380:1618   */\n      pop\n        /* \"#utility.yul\":1337:1618   */\n      pop\n      pop\n      jump\t// out\n        /* \"#utility.yul\":1624:1753   */\n    tag_41:\n        /* \"#utility.yul\":1658:1664   */\n      0x00\n        /* \"#utility.yul\":1685:1705   */\n      tag_79\n      tag_34\n      jump\t// in\n    tag_79:\n        /* \"#utility.yul\":1675:1705   */\n      swap1\n      pop\n        /* \"#utility.yul\":1714:1747   */\n      tag_80\n        /* \"#utility.yul\":1742:1746   */\n      dup3\n        /* \"#utility.yul\":1734:1740   */\n      dup3\n        /* \"#utility.yul\":1714:1747   */\n      tag_40\n      jump\t// in\n    tag_80:\n        /* \"#utility.yul\":1624:1753   */\n      swap2\n      swap1\n      pop\n      jump\t// out\n        /* \"#utility.yul\":1759:2078   */\n    tag_42:\n        /* \"#utility.yul\":1844:1848   */\n      0x00\n        /* \"#utility.yul\":1934:1952   */\n      0xffffffffffffffff\n        /* \"#utility.yul\":1926:1932   */\n      dup3\n        /* \"#utility.yul\":1923:1953   */\n      gt\n        /* \"#utility.yul\":1920:1976   */\n      iszero\n      tag_82\n      jumpi\n        /* \"#utility.yul\":1956:1974   */\n      tag_83\n      tag_39\n      jump\t// in\n    tag_83:\n        /* \"#utility.yul\":1920:1976   */\n    tag_82:\n        /* \"#utility.yul\":2006:2010   */\n      0x20\n        /* \"#utility.yul\":1998:2004   */\n      dup3\n        /* \"#utility.yul\":1994:2011   */\n      mul\n        /* \"#utility.yul\":1986:2011   */\n      swap1\n      pop\n        /* \"#utility.yul\":2066:2070   */\n      0x20\n        /* \"#utility.yul\":2060:2064   */\n      dup2\n        /* \"#utility.yul\":2056:2071   */\n      add\n        /* \"#utility.yul\":2048:2071   */\n      swap1\n      pop\n        /* \"#utility.yul\":1759:2078   */\n      swap2\n      swap1\n      pop\n      jump\t// out\n        /* \"#utility.yul\":2084:2201   */\n    tag_43:\n        /* \"#utility.yul\":2193:2194   */\n      0x00\n        /* \"#utility.yul\":2190:2191   */\n      dup1\n        /* \"#utility.yul\":2183:2195   */\n      revert\n        /* \"#utility.yul\":2207:2311   */\n    tag_44:\n        /* \"#utility.yul\":2252:2259   */\n      0x00\n        /* \"#utility.yul\":2281:2305   */\n      tag_86\n        /* \"#utility.yul\":2299:2304   */\n      dup3\n        /* \"#utility.yul\":2281:2305   */\n      tag_31\n      jump\t// in\n    tag_86:\n        /* \"#utility.yul\":2270:2305   */\n      swap1\n      pop\n        /* \"#utility.yul\":2207:2311   */\n      swap2\n      swap1\n      pop\n      jump\t// out\n        /* \"#utility.yul\":2317:2455   */\n    tag_45:\n        /* \"#utility.yul\":2398:2430   */\n      tag_88\n        /* \"#utility.yul\":2424:2429   */\n      dup2\n        /* \"#utility.yul\":2398:2430   */\n      tag_44\n      jump\t// in\n    tag_88:\n        /* \"#utility.yul\":2391:2396   */\n      dup2\n        /* \"#utility.yul\":2388:2431   */\n      eq\n        /* \"#utility.yul\":2378:2449   */\n      tag_89\n      jumpi\n        /* \"#utility.yul\":2445:2446   */\n      0x00\n        /* \"#utility.yul\":2442:2443   */\n      dup1\n        /* \"#utility.yul\":2435:2447   */\n      revert\n        /* \"#utility.yul\":2378:2449   */\n    tag_89:\n        /* \"#utility.yul\":2317:2455   */\n      pop\n      jump\t// out\n        /* \"#utility.yul\":2461:2616   */\n    tag_46:\n        /* \"#utility.yul\":2515:2520   */\n      0x00\n        /* \"#utility.yul\":2553:2559   */\n      dup2\n        /* \"#utility.yul\":2540:2560   */\n      calldataload\n        /* \"#utility.yul\":2531:2560   */\n      swap1\n      pop\n        /* \"#utility.yul\":2569:2610   */\n      tag_91\n        /* \"#utility.yul\":2604:2609   */\n      dup2\n        /* \"#utility.yul\":2569:2610   */\n      tag_45\n      jump\t// in\n    tag_91:\n        /* \"#utility.yul\":2461:2616   */\n      swap3\n      swap2\n      pop\n      pop\n      jump\t// out\n        /* \"#utility.yul\":2647:3381   */\n    tag_47:\n        /* \"#utility.yul\":2751:2756   */\n      0x00\n        /* \"#utility.yul\":2776:2865   */\n      tag_93\n        /* \"#utility.yul\":2792:2864   */\n      tag_94\n        /* \"#utility.yul\":2857:2863   */\n      dup5\n        /* \"#utility.yul\":2792:2864   */\n      tag_42\n      jump\t// in\n    tag_94:\n        /* \"#utility.yul\":2776:2865   */\n      tag_41\n      jump\t// in\n    tag_93:\n        /* \"#utility.yul\":2767:2865   */\n      swap1\n      pop\n        /* \"#utility.yul\":2885:2890   */\n      dup1\n        /* \"#utility.yul\":2914:2920   */\n      dup4\n        /* \"#utility.yul\":2907:2912   */\n      dup3\n        /* \"#utility.yul\":2900:2921   */\n      mstore\n        /* \"#utility.yul\":2948:2952   */\n      0x20\n        /* \"#utility.yul\":2941:2946   */\n      dup3\n        /* \"#utility.yul\":2937:2953   */\n      add\n        /* \"#utility.yul\":2930:2953   */\n      swap1\n      pop\n        /* \"#utility.yul\":3001:3005   */\n      0x20\n        /* \"#utility.yul\":2993:2999   */\n      dup5\n        /* \"#utility.yul\":2989:3006   */\n      mul\n        /* \"#utility.yul\":2981:2987   */\n      dup4\n        /* \"#utility.yul\":2977:3007   */\n      add\n        /* \"#utility.yul\":3030:3033   */\n      dup6\n        /* \"#utility.yul\":3022:3028   */\n      dup2\n        /* \"#utility.yul\":3019:3034   */\n      gt\n        /* \"#utility.yul\":3016:3138   */\n      iszero\n      tag_95\n      jumpi\n        /* \"#utility.yul\":3049:3128   */\n      tag_96\n      tag_43\n      jump\t// in\n    tag_96:\n        /* \"#utility.yul\":3016:3138   */\n    tag_95:\n        /* \"#utility.yul\":3164:3170   */\n      dup4\n        /* \"#utility.yul\":3147:3375   */\n    tag_97:\n        /* \"#utility.yul\":3181:3187   */\n      dup2\n        /* \"#utility.yul\":3176:3179   */\n      dup2\n        /* \"#utility.yul\":3173:3188   */\n      lt\n        /* \"#utility.yul\":3147:3375   */\n      iszero\n      tag_99\n      jumpi\n        /* \"#utility.yul\":3256:3259   */\n      dup1\n        /* \"#utility.yul\":3285:3330   */\n      tag_100\n        /* \"#utility.yul\":3326:3329   */\n      dup9\n        /* \"#utility.yul\":3314:3324   */\n      dup3\n        /* \"#utility.yul\":3285:3330   */\n      tag_46\n      jump\t// in\n    tag_100:\n        /* \"#utility.yul\":3280:3283   */\n      dup5\n        /* \"#utility.yul\":3273:3331   */\n      mstore\n        /* \"#utility.yul\":3360:3364   */\n      0x20\n        /* \"#utility.yul\":3355:3358   */\n      dup5\n        /* \"#utility.yul\":3351:3365   */\n      add\n        /* \"#utility.yul\":3344:3365   */\n      swap4\n      pop\n        /* \"#utility.yul\":3223:3375   */\n      pop\n        /* \"#utility.yul\":3207:3211   */\n      0x20\n        /* \"#utility.yul\":3202:3205   */\n      dup2\n        /* \"#utility.yul\":3198:3212   */\n      add\n        /* \"#utility.yul\":3191:3212   */\n      swap1\n      pop\n        /* \"#utility.yul\":3147:3375   */\n      jump(tag_97)\n    tag_99:\n        /* \"#utility.yul\":3151:3172   */\n      pop\n        /* \"#utility.yul\":2757:3381   */\n      pop\n      pop\n        /* \"#utility.yul\":2647:3381   */\n      swap4\n      swap3\n      pop\n      pop\n      pop\n      jump\t// out\n        /* \"#utility.yul\":3412:3798   */\n    tag_48:\n        /* \"#utility.yul\":3491:3496   */\n      0x00\n        /* \"#utility.yul\":3540:3543   */\n      dup3\n        /* \"#utility.yul\":3533:3537   */\n      0x1f\n        /* \"#utility.yul\":3525:3531   */\n      dup4\n        /* \"#utility.yul\":3521:3538   */\n      add\n        /* \"#utility.yul\":3517:3544   */\n      slt\n        /* \"#utility.yul\":3507:3629   */\n      tag_102\n      jumpi\n        /* \"#utility.yul\":3548:3627   */\n      tag_103\n      tag_37\n      jump\t// in\n    tag_103:\n        /* \"#utility.yul\":3507:3629   */\n    tag_102:\n        /* \"#utility.yul\":3665:3671   */\n      dup2\n        /* \"#utility.yul\":3652:3672   */\n      calldataload\n        /* \"#utility.yul\":3690:3792   */\n      tag_104\n        /* \"#utility.yul\":3788:3791   */\n      dup5\n        /* \"#utility.yul\":3780:3786   */\n      dup3\n        /* \"#utility.yul\":3773:3777   */\n      0x20\n        /* \"#utility.yul\":3765:3771   */\n      dup7\n        /* \"#utility.yul\":3761:3778   */\n      add\n        /* \"#utility.yul\":3690:3792   */\n      tag_47\n      jump\t// in\n    tag_104:\n        /* \"#utility.yul\":3681:3792   */\n      swap2\n      pop\n        /* \"#utility.yul\":3497:3798   */\n      pop\n        /* \"#utility.yul\":3412:3798   */\n      swap3\n      swap2\n      pop\n      pop\n      jump\t// out\n        /* \"#utility.yul\":3804:4115   */\n    tag_49:\n        /* \"#utility.yul\":3881:3885   */\n      0x00\n        /* \"#utility.yul\":3971:3989   */\n      0xffffffffffffffff\n        /* \"#utility.yul\":3963:3969   */\n      dup3\n        /* \"#utility.yul\":3960:3990   */\n      gt\n        /* \"#utility.yul\":3957:4013   */\n      iszero\n      tag_106\n      jumpi\n        /* \"#utility.yul\":3993:4011   */\n      tag_107\n      tag_39\n      jump\t// in\n    tag_107:\n        /* \"#utility.yul\":3957:4013   */\n    tag_106:\n        /* \"#utility.yul\":4043:4047   */\n      0x20\n        /* \"#utility.yul\":4035:4041   */\n      dup3\n        /* \"#utility.yul\":4031:4048   */\n      mul\n        /* \"#utility.yul\":4023:4048   */\n      swap1\n      pop\n        /* \"#utility.yul\":4103:4107   */\n      0x20\n        /* \"#utility.yul\":4097:4101   */\n      dup2\n        /* \"#utility.yul\":4093:4108   */\n      add\n        /* \"#utility.yul\":4085:4108   */\n      swap1\n      pop\n        /* \"#utility.yul\":3804:4115   */\n      swap2\n      swap1\n      pop\n      jump\t// out\n        /* \"#utility.yul\":4121:4198   */\n    tag_50:\n        /* \"#utility.yul\":4158:4165   */\n      0x00\n        /* \"#utility.yul\":4187:4192   */\n      dup2\n        /* \"#utility.yul\":4176:4192   */\n      swap1\n      pop\n        /* \"#utility.yul\":4121:4198   */\n      swap2\n      swap1\n      pop\n      jump\t// out\n        /* \"#utility.yul\":4204:4326   */\n    tag_51:\n        /* \"#utility.yul\":4277:4301   */\n      tag_110\n        /* \"#utility.yul\":4295:4300   */\n      dup2\n        /* \"#utility.yul\":4277:4301   */\n      tag_50\n      jump\t// in\n    tag_110:\n        /* \"#utility.yul\":4270:4275   */\n      dup2\n        /* \"#utility.yul\":4267:4302   */\n      eq\n        /* \"#utility.yul\":4257:4320   */\n      tag_111\n      jumpi\n        /* \"#utility.yul\":4316:4317   */\n      0x00\n        /* \"#utility.yul\":4313:4314   */\n      dup1\n        /* \"#utility.yul\":4306:4318   */\n      revert\n        /* \"#utility.yul\":4257:4320   */\n    tag_111:\n        /* \"#utility.yul\":4204:4326   */\n      pop\n      jump\t// out\n        /* \"#utility.yul\":4332:4471   */\n    tag_52:\n        /* \"#utility.yul\":4378:4383   */\n      0x00\n        /* \"#utility.yul\":4416:4422   */\n      dup2\n        /* \"#utility.yul\":4403:4423   */\n      calldataload\n        /* \"#utility.yul\":4394:4423   */\n      swap1\n      pop\n        /* \"#utility.yul\":4432:4465   */\n      tag_113\n        /* \"#utility.yul\":4459:4464   */\n      dup2\n        /* \"#utility.yul\":4432:4465   */\n      tag_51\n      jump\t// in\n    tag_113:\n        /* \"#utility.yul\":4332:4471   */\n      swap3\n      swap2\n      pop\n      pop\n      jump\t// out\n        /* \"#utility.yul\":4494:5204   */\n    tag_53:\n        /* \"#utility.yul\":4590:4595   */\n      0x00\n        /* \"#utility.yul\":4615:4696   */\n      tag_115\n        /* \"#utility.yul\":4631:4695   */\n      tag_116\n        /* \"#utility.yul\":4688:4694   */\n      dup5\n        /* \"#utility.yul\":4631:4695   */\n      tag_49\n      jump\t// in\n    tag_116:\n        /* \"#utility.yul\":4615:4696   */\n      tag_41\n      jump\t// in\n    tag_115:\n        /* \"#utility.yul\":4606:4696   */\n      swap1\n      pop\n        /* \"#utility.yul\":4716:4721   */\n      dup1\n        /* \"#utility.yul\":4745:4751   */\n      dup4\n        /* \"#utility.yul\":4738:4743   */\n      dup3\n        /* \"#utility.yul\":4731:4752   */\n      mstore\n        /* \"#utility.yul\":4779:4783   */\n      0x20\n        /* \"#utility.yul\":4772:4777   */\n      dup3\n        /* \"#utility.yul\":4768:4784   */\n      add\n        /* \"#utility.yul\":4761:4784   */\n      swap1\n      pop\n        /* \"#utility.yul\":4832:4836   */\n      0x20\n        /* \"#utility.yul\":4824:4830   */\n      dup5\n        /* \"#utility.yul\":4820:4837   */\n      mul\n        /* \"#utility.yul\":4812:4818   */\n      dup4\n        /* \"#utility.yul\":4808:4838   */\n      add\n        /* \"#utility.yul\":4861:4864   */\n      dup6\n        /* \"#utility.yul\":4853:4859   */\n      dup2\n        /* \"#utility.yul\":4850:4865   */\n      gt\n        /* \"#utility.yul\":4847:4969   */\n      iszero\n      tag_117\n      jumpi\n        /* \"#utility.yul\":4880:4959   */\n      tag_118\n      tag_43\n      jump\t// in\n    tag_118:\n        /* \"#utility.yul\":4847:4969   */\n    tag_117:\n        /* \"#utility.yul\":4995:5001   */\n      dup4\n        /* \"#utility.yul\":4978:5198   */\n    tag_119:\n        /* \"#utility.yul\":5012:5018   */\n      dup2\n        /* \"#utility.yul\":5007:5010   */\n      dup2\n        /* \"#utility.yul\":5004:5019   */\n      lt\n        /* \"#utility.yul\":4978:5198   */\n      iszero\n      tag_121\n      jumpi\n        /* \"#utility.yul\":5087:5090   */\n      dup1\n        /* \"#utility.yul\":5116:5153   */\n      tag_122\n        /* \"#utility.yul\":5149:5152   */\n      dup9\n        /* \"#utility.yul\":5137:5147   */\n      dup3\n        /* \"#utility.yul\":5116:5153   */\n      tag_52\n      jump\t// in\n    tag_122:\n        /* \"#utility.yul\":5111:5114   */\n      dup5\n        /* \"#utility.yul\":5104:5154   */\n      mstore\n        /* \"#utility.yul\":5183:5187   */\n      0x20\n        /* \"#utility.yul\":5178:5181   */\n      dup5\n        /* \"#utility.yul\":5174:5188   */\n      add\n        /* \"#utility.yul\":5167:5188   */\n      swap4\n      pop\n        /* \"#utility.yul\":5054:5198   */\n      pop\n        /* \"#utility.yul\":5038:5042   */\n      0x20\n        /* \"#utility.yul\":5033:5036   */\n      dup2\n        /* \"#utility.yul\":5029:5043   */\n      add\n        /* \"#utility.yul\":5022:5043   */\n      swap1\n      pop\n        /* \"#utility.yul\":4978:5198   */\n      jump(tag_119)\n    tag_121:\n        /* \"#utility.yul\":4982:5003   */\n      pop\n        /* \"#utility.yul\":4596:5204   */\n      pop\n      pop\n        /* \"#utility.yul\":4494:5204   */\n      swap4\n      swap3\n      pop\n      pop\n      pop\n      jump\t// out\n        /* \"#utility.yul\":5227:5597   */\n    tag_54:\n        /* \"#utility.yul\":5298:5303   */\n      0x00\n        /* \"#utility.yul\":5347:5350   */\n      dup3\n        /* \"#utility.yul\":5340:5344   */\n      0x1f\n        /* \"#utility.yul\":5332:5338   */\n      dup4\n        /* \"#utility.yul\":5328:5345   */\n      add\n        /* \"#utility.yul\":5324:5351   */\n      slt\n        /* \"#utility.yul\":5314:5436   */\n      tag_124\n      jumpi\n        /* \"#utility.yul\":5355:5434   */\n      tag_125\n      tag_37\n      jump\t// in\n    tag_125:\n        /* \"#utility.yul\":5314:5436   */\n    tag_124:\n        /* \"#utility.yul\":5472:5478   */\n      dup2\n        /* \"#utility.yul\":5459:5479   */\n      calldataload\n        /* \"#utility.yul\":5497:5591   */\n      tag_126\n        /* \"#utility.yul\":5587:5590   */\n      dup5\n        /* \"#utility.yul\":5579:5585   */\n      dup3\n        /* \"#utility.yul\":5572:5576   */\n      0x20\n        /* \"#utility.yul\":5564:5570   */\n      dup7\n        /* \"#utility.yul\":5560:5577   */\n      add\n        /* \"#utility.yul\":5497:5591   */\n      tag_53\n      jump\t// in\n    tag_126:\n        /* \"#utility.yul\":5488:5591   */\n      swap2\n      pop\n        /* \"#utility.yul\":5304:5597   */\n      pop\n        /* \"#utility.yul\":5227:5597   */\n      swap3\n      swap2\n      pop\n      pop\n      jump\t// out\n        /* \"#utility.yul\":5603:6513   */\n    tag_11:\n        /* \"#utility.yul\":5729:5735   */\n      0x00\n        /* \"#utility.yul\":5737:5743   */\n      dup1\n        /* \"#utility.yul\":5786:5788   */\n      0x40\n        /* \"#utility.yul\":5774:5783   */\n      dup4\n        /* \"#utility.yul\":5765:5772   */\n      dup6\n        /* \"#utility.yul\":5761:5784   */\n      sub\n        /* \"#utility.yul\":5757:5789   */\n      slt\n        /* \"#utility.yul\":5754:5873   */\n      iszero\n      tag_128\n      jumpi\n        /* \"#utility.yul\":5792:5871   */\n      tag_129\n      tag_35\n      jump\t// in\n    tag_129:\n        /* \"#utility.yul\":5754:5873   */\n    tag_128:\n        /* \"#utility.yul\":5940:5941   */\n      0x00\n        /* \"#utility.yul\":5929:5938   */\n      dup4\n        /* \"#utility.yul\":5925:5942   */\n      add\n        /* \"#utility.yul\":5912:5943   */\n      calldataload\n        /* \"#utility.yul\":5970:5988   */\n      0xffffffffffffffff\n        /* \"#utility.yul\":5962:5968   */\n      dup2\n        /* \"#utility.yul\":5959:5989   */\n      gt\n        /* \"#utility.yul\":5956:6073   */\n      iszero\n      tag_130\n      jumpi\n        /* \"#utility.yul\":5992:6071   */\n      tag_131\n      tag_36\n      jump\t// in\n    tag_131:\n        /* \"#utility.yul\":5956:6073   */\n    tag_130:\n        /* \"#utility.yul\":6097:6183   */\n      tag_132\n        /* \"#utility.yul\":6175:6182   */\n      dup6\n        /* \"#utility.yul\":6166:6172   */\n      dup3\n        /* \"#utility.yul\":6155:6164   */\n      dup7\n        /* \"#utility.yul\":6151:6173   */\n      add\n        /* \"#utility.yul\":6097:6183   */\n      tag_48\n      jump\t// in\n    tag_132:\n        /* \"#utility.yul\":6087:6183   */\n      swap3\n      pop\n        /* \"#utility.yul\":5883:6193   */\n      pop\n        /* \"#utility.yul\":6260:6262   */\n      0x20\n        /* \"#utility.yul\":6249:6258   */\n      dup4\n        /* \"#utility.yul\":6245:6263   */\n      add\n        /* \"#utility.yul\":6232:6264   */\n      calldataload\n        /* \"#utility.yul\":6291:6309   */\n      0xffffffffffffffff\n        /* \"#utility.yul\":6283:6289   */\n      dup2\n        /* \"#utility.yul\":6280:6310   */\n      gt\n        /* \"#utility.yul\":6277:6394   */\n      iszero\n      tag_133\n      jumpi\n        /* \"#utility.yul\":6313:6392   */\n      tag_134\n      tag_36\n      jump\t// in\n    tag_134:\n        /* \"#utility.yul\":6277:6394   */\n    tag_133:\n        /* \"#utility.yul\":6418:6496   */\n      tag_135\n        /* \"#utility.yul\":6488:6495   */\n      dup6\n        /* \"#utility.yul\":6479:6485   */\n      dup3\n        /* \"#utility.yul\":6468:6477   */\n      dup7\n        /* \"#utility.yul\":6464:6486   */\n      add\n        /* \"#utility.yul\":6418:6496   */\n      tag_54\n      jump\t// in\n    tag_135:\n        /* \"#utility.yul\":6408:6496   */\n      swap2\n      pop\n        /* \"#utility.yul\":6203:6506   */\n      pop\n        /* \"#utility.yul\":5603:6513   */\n      swap3\n      pop\n      swap3\n      swap1\n      pop\n      jump\t// out\n        /* \"#utility.yul\":6519:6688   */\n    tag_55:\n        /* \"#utility.yul\":6603:6614   */\n      0x00\n        /* \"#utility.yul\":6637:6643   */\n      dup3\n        /* \"#utility.yul\":6632:6635   */\n      dup3\n        /* \"#utility.yul\":6625:6644   */\n      mstore\n        /* \"#utility.yul\":6677:6681   */\n      0x20\n        /* \"#utility.yul\":6672:6675   */\n      dup3\n        /* \"#utility.yul\":6668:6682   */\n      add\n        /* \"#utility.yul\":6653:6682   */\n      swap1\n      pop\n        /* \"#utility.yul\":6519:6688   */\n      swap3\n      swap2\n      pop\n      pop\n      jump\t// out\n        /* \"#utility.yul\":6694:6920   */\n    tag_56:\n        /* \"#utility.yul\":6834:6868   */\n      0x536f6c6f20656c2070726f706965746172696f20707565646520656e76696172\n        /* \"#utility.yul\":6830:6831   */\n      0x00\n        /* \"#utility.yul\":6822:6828   */\n      dup3\n        /* \"#utility.yul\":6818:6832   */\n      add\n        /* \"#utility.yul\":6811:6869   */\n      mstore\n        /* \"#utility.yul\":6903:6912   */\n      0x2064696e65726f00000000000000000000000000000000000000000000000000\n        /* \"#utility.yul\":6898:6900   */\n      0x20\n        /* \"#utility.yul\":6890:6896   */\n      dup3\n        /* \"#utility.yul\":6886:6901   */\n      add\n        /* \"#utility.yul\":6879:6913   */\n      mstore\n        /* \"#utility.yul\":6694:6920   */\n      pop\n      jump\t// out\n        /* \"#utility.yul\":6926:7292   */\n    tag_57:\n        /* \"#utility.yul\":7068:7071   */\n      0x00\n        /* \"#utility.yul\":7089:7156   */\n      tag_139\n        /* \"#utility.yul\":7153:7155   */\n      0x27\n        /* \"#utility.yul\":7148:7151   */\n      dup4\n        /* \"#utility.yul\":7089:7156   */\n      tag_55\n      jump\t// in\n    tag_139:\n        /* \"#utility.yul\":7082:7156   */\n      swap2\n      pop\n        /* \"#utility.yul\":7165:7258   */\n      tag_140\n        /* \"#utility.yul\":7254:7257   */\n      dup3\n        /* \"#utility.yul\":7165:7258   */\n      tag_56\n      jump\t// in\n    tag_140:\n        /* \"#utility.yul\":7283:7285   */\n      0x40\n        /* \"#utility.yul\":7278:7281   */\n      dup3\n        /* \"#utility.yul\":7274:7286   */\n      add\n        /* \"#utility.yul\":7267:7286   */\n      swap1\n      pop\n        /* \"#utility.yul\":6926:7292   */\n      swap2\n      swap1\n      pop\n      jump\t// out\n        /* \"#utility.yul\":7298:7717   */\n    tag_16:\n        /* \"#utility.yul\":7464:7468   */\n      0x00\n        /* \"#utility.yul\":7502:7504   */\n      0x20\n        /* \"#utility.yul\":7491:7500   */\n      dup3\n        /* \"#utility.yul\":7487:7505   */\n      add\n        /* \"#utility.yul\":7479:7505   */\n      swap1\n      pop\n        /* \"#utility.yul\":7551:7560   */\n      dup2\n        /* \"#utility.yul\":7545:7549   */\n      dup2\n        /* \"#utility.yul\":7541:7561   */\n      sub\n        /* \"#utility.yul\":7537:7538   */\n      0x00\n        /* \"#utility.yul\":7526:7535   */\n      dup4\n        /* \"#utility.yul\":7522:7539   */\n      add\n        /* \"#utility.yul\":7515:7562   */\n      mstore\n        /* \"#utility.yul\":7579:7710   */\n      tag_142\n        /* \"#utility.yul\":7705:7709   */\n      dup2\n        /* \"#utility.yul\":7579:7710   */\n      tag_57\n      jump\t// in\n    tag_142:\n        /* \"#utility.yul\":7571:7710   */\n      swap1\n      pop\n        /* \"#utility.yul\":7298:7717   */\n      swap2\n      swap1\n      pop\n      jump\t// out\n        /* \"#utility.yul\":7723:7964   */\n    tag_58:\n        /* \"#utility.yul\":7863:7897   */\n      0x746f206f20656c20616d6f756e74206465206c61732061727261797320736965\n        /* \"#utility.yul\":7859:7860   */\n      0x00\n        /* \"#utility.yul\":7851:7857   */\n      dup3\n        /* \"#utility.yul\":7847:7861   */\n      add\n        /* \"#utility.yul\":7840:7898   */\n      mstore\n        /* \"#utility.yul\":7932:7956   */\n      0x6d70726520646562656e2073657220696775616c657300000000000000000000\n        /* \"#utility.yul\":7927:7929   */\n      0x20\n        /* \"#utility.yul\":7919:7925   */\n      dup3\n        /* \"#utility.yul\":7915:7930   */\n      add\n        /* \"#utility.yul\":7908:7957   */\n      mstore\n        /* \"#utility.yul\":7723:7964   */\n      pop\n      jump\t// out\n        /* \"#utility.yul\":7970:8336   */\n    tag_59:\n        /* \"#utility.yul\":8112:8115   */\n      0x00\n        /* \"#utility.yul\":8133:8200   */\n      tag_145\n        /* \"#utility.yul\":8197:8199   */\n      0x36\n        /* \"#utility.yul\":8192:8195   */\n      dup4\n        /* \"#utility.yul\":8133:8200   */\n      tag_55\n      jump\t// in\n    tag_145:\n        /* \"#utility.yul\":8126:8200   */\n      swap2\n      pop\n        /* \"#utility.yul\":8209:8302   */\n      tag_146\n        /* \"#utility.yul\":8298:8301   */\n      dup3\n        /* \"#utility.yul\":8209:8302   */\n      tag_58\n      jump\t// in\n    tag_146:\n        /* \"#utility.yul\":8327:8329   */\n      0x40\n        /* \"#utility.yul\":8322:8325   */\n      dup3\n        /* \"#utility.yul\":8318:8330   */\n      add\n        /* \"#utility.yul\":8311:8330   */\n      swap1\n      pop\n        /* \"#utility.yul\":7970:8336   */\n      swap2\n      swap1\n      pop\n      jump\t// out\n        /* \"#utility.yul\":8342:8761   */\n    tag_20:\n        /* \"#utility.yul\":8508:8512   */\n      0x00\n        /* \"#utility.yul\":8546:8548   */\n      0x20\n        /* \"#utility.yul\":8535:8544   */\n      dup3\n        /* \"#utility.yul\":8531:8549   */\n      add\n        /* \"#utility.yul\":8523:8549   */\n      swap1\n      pop\n        /* \"#utility.yul\":8595:8604   */\n      dup2\n        /* \"#utility.yul\":8589:8593   */\n      dup2\n        /* \"#utility.yul\":8585:8605   */\n      sub\n        /* \"#utility.yul\":8581:8582   */\n      0x00\n        /* \"#utility.yul\":8570:8579   */\n      dup4\n        /* \"#utility.yul\":8566:8583   */\n      add\n        /* \"#utility.yul\":8559:8606   */\n      mstore\n        /* \"#utility.yul\":8623:8754   */\n      tag_148\n        /* \"#utility.yul\":8749:8753   */\n      dup2\n        /* \"#utility.yul\":8623:8754   */\n      tag_59\n      jump\t// in\n    tag_148:\n        /* \"#utility.yul\":8615:8754   */\n      swap1\n      pop\n        /* \"#utility.yul\":8342:8761   */\n      swap2\n      swap1\n      pop\n      jump\t// out\n        /* \"#utility.yul\":8767:8947   */\n    tag_26:\n        /* \"#utility.yul\":8815:8892   */\n      0x4e487b7100000000000000000000000000000000000000000000000000000000\n        /* \"#utility.yul\":8812:8813   */\n      0x00\n        /* \"#utility.yul\":8805:8893   */\n      mstore\n        /* \"#utility.yul\":8912:8916   */\n      0x32\n        /* \"#utility.yul\":8909:8910   */\n      0x04\n        /* \"#utility.yul\":8902:8917   */\n      mstore\n        /* \"#utility.yul\":8936:8940   */\n      0x24\n        /* \"#utility.yul\":8933:8934   */\n      0x00\n        /* \"#utility.yul\":8926:8941   */\n      revert\n\n    auxdata: 0xa264697066735822122006e5f3d831585e93a105d7e2166f5f86652c08406092895809c0330164c4155364736f6c634300081a0033\n}\n",
				"bytecode": {
					"linkReferences": {},
					"object": "608060405234801561000f575f80fd5b506040516107f33803806107f3833981810160405281019061003191906100d4565b805f806101000a81548173ffffffffffffffffffffffffffffffffffffffff021916908373ffffffffffffffffffffffffffffffffffffffff160217905550506100ff565b5f80fd5b5f73ffffffffffffffffffffffffffffffffffffffff82169050919050565b5f6100a38261007a565b9050919050565b6100b381610099565b81146100bd575f80fd5b50565b5f815190506100ce816100aa565b92915050565b5f602082840312156100e9576100e8610076565b5b5f6100f6848285016100c0565b91505092915050565b6106e78061010c5f395ff3fe608060405260043610610028575f3560e01c80638da5cb5b1461002c578063a645ff5f14610056575b5f80fd5b348015610037575f80fd5b50610040610072565b60405161004d919061023a565b60405180910390f35b610070600480360381019061006b91906104e2565b610095565b005b5f8054906101000a900473ffffffffffffffffffffffffffffffffffffffff1681565b5f8054906101000a900473ffffffffffffffffffffffffffffffffffffffff1673ffffffffffffffffffffffffffffffffffffffff163373ffffffffffffffffffffffffffffffffffffffff1614610122576040517f08c379a0000000000000000000000000000000000000000000000000000000008152600401610119906105d8565b60405180910390fd5b8051825114610166576040517f08c379a000000000000000000000000000000000000000000000000000000000815260040161015d90610666565b60405180910390fd5b5f5b82518110156101f65782818151811061018457610183610684565b5b602002602001015173ffffffffffffffffffffffffffffffffffffffff166108fc8383815181106101b8576101b7610684565b5b602002602001015190811502906040515f60405180830381858888f193505050501580156101e8573d5f803e3d5ffd5b508080600101915050610168565b505050565b5f73ffffffffffffffffffffffffffffffffffffffff82169050919050565b5f610224826101fb565b9050919050565b6102348161021a565b82525050565b5f60208201905061024d5f83018461022b565b92915050565b5f604051905090565b5f80fd5b5f80fd5b5f80fd5b5f601f19601f8301169050919050565b7f4e487b71000000000000000000000000000000000000000000000000000000005f52604160045260245ffd5b6102ae82610268565b810181811067ffffffffffffffff821117156102cd576102cc610278565b5b80604052505050565b5f6102df610253565b90506102eb82826102a5565b919050565b5f67ffffffffffffffff82111561030a57610309610278565b5b602082029050602081019050919050565b5f80fd5b5f610329826101fb565b9050919050565b6103398161031f565b8114610343575f80fd5b50565b5f8135905061035481610330565b92915050565b5f61036c610367846102f0565b6102d6565b9050808382526020820190506020840283018581111561038f5761038e61031b565b5b835b818110156103b857806103a48882610346565b845260208401935050602081019050610391565b5050509392505050565b5f82601f8301126103d6576103d5610264565b5b81356103e684826020860161035a565b91505092915050565b5f67ffffffffffffffff82111561040957610408610278565b5b602082029050602081019050919050565b5f819050919050565b61042c8161041a565b8114610436575f80fd5b50565b5f8135905061044781610423565b92915050565b5f61045f61045a846103ef565b6102d6565b905080838252602082019050602084028301858111156104825761048161031b565b5b835b818110156104ab57806104978882610439565b845260208401935050602081019050610484565b5050509392505050565b5f82601f8301126104c9576104c8610264565b5b81356104d984826020860161044d565b91505092915050565b5f80604083850312156104f8576104f761025c565b5b5f83013567ffffffffffffffff81111561051557610514610260565b5b610521858286016103c2565b925050602083013567ffffffffffffffff81111561054257610541610260565b5b61054e858286016104b5565b9150509250929050565b5f82825260208201905092915050565b7f536f6c6f20656c2070726f706965746172696f20707565646520656e766961725f8201527f2064696e65726f00000000000000000000000000000000000000000000000000602082015250565b5f6105c2602783610558565b91506105cd82610568565b604082019050919050565b5f6020820190508181035f8301526105ef816105b6565b9050919050565b7f746f206f20656c20616d6f756e74206465206c617320617272617973207369655f8201527f6d70726520646562656e2073657220696775616c657300000000000000000000602082015250565b5f610650603683610558565b915061065b826105f6565b604082019050919050565b5f6020820190508181035f83015261067d81610644565b9050919050565b7f4e487b71000000000000000000000000000000000000000000000000000000005f52603260045260245ffdfea264697066735822122006e5f3d831585e93a105d7e2166f5f86652c08406092895809c0330164c4155364736f6c634300081a0033",
					"opcodes": "PUSH1 0x80 PUSH1 0x40 MSTORE CALLVALUE DUP1 ISZERO PUSH2 0xF JUMPI PUSH0 DUP1 REVERT JUMPDEST POP PUSH1 0x40 MLOAD PUSH2 0x7F3 CODESIZE SUB DUP1 PUSH2 0x7F3 DUP4 CODECOPY DUP2 DUP2 ADD PUSH1 0x40 MSTORE DUP2 ADD SWAP1 PUSH2 0x31 SWAP2 SWAP1 PUSH2 0xD4 JUMP JUMPDEST DUP1 PUSH0 DUP1 PUSH2 0x100 EXP DUP2 SLOAD DUP2 PUSH20 0xFFFFFFFFFFFFFFFFFFFFFFFFFFFFFFFFFFFFFFFF MUL NOT AND SWAP1 DUP4 PUSH20 0xFFFFFFFFFFFFFFFFFFFFFFFFFFFFFFFFFFFFFFFF AND MUL OR SWAP1 SSTORE POP POP PUSH2 0xFF JUMP JUMPDEST PUSH0 DUP1 REVERT JUMPDEST PUSH0 PUSH20 0xFFFFFFFFFFFFFFFFFFFFFFFFFFFFFFFFFFFFFFFF DUP3 AND SWAP1 POP SWAP2 SWAP1 POP JUMP JUMPDEST PUSH0 PUSH2 0xA3 DUP3 PUSH2 0x7A JUMP JUMPDEST SWAP1 POP SWAP2 SWAP1 POP JUMP JUMPDEST PUSH2 0xB3 DUP2 PUSH2 0x99 JUMP JUMPDEST DUP2 EQ PUSH2 0xBD JUMPI PUSH0 DUP1 REVERT JUMPDEST POP JUMP JUMPDEST PUSH0 DUP2 MLOAD SWAP1 POP PUSH2 0xCE DUP2 PUSH2 0xAA JUMP JUMPDEST SWAP3 SWAP2 POP POP JUMP JUMPDEST PUSH0 PUSH1 0x20 DUP3 DUP5 SUB SLT ISZERO PUSH2 0xE9 JUMPI PUSH2 0xE8 PUSH2 0x76 JUMP JUMPDEST JUMPDEST PUSH0 PUSH2 0xF6 DUP5 DUP3 DUP6 ADD PUSH2 0xC0 JUMP JUMPDEST SWAP2 POP POP SWAP3 SWAP2 POP POP JUMP JUMPDEST PUSH2 0x6E7 DUP1 PUSH2 0x10C PUSH0 CODECOPY PUSH0 RETURN INVALID PUSH1 0x80 PUSH1 0x40 MSTORE PUSH1 0x4 CALLDATASIZE LT PUSH2 0x28 JUMPI PUSH0 CALLDATALOAD PUSH1 0xE0 SHR DUP1 PUSH4 0x8DA5CB5B EQ PUSH2 0x2C JUMPI DUP1 PUSH4 0xA645FF5F EQ PUSH2 0x56 JUMPI JUMPDEST PUSH0 DUP1 REVERT JUMPDEST CALLVALUE DUP1 ISZERO PUSH2 0x37 JUMPI PUSH0 DUP1 REVERT JUMPDEST POP PUSH2 0x40 PUSH2 0x72 JUMP JUMPDEST PUSH1 0x40 MLOAD PUSH2 0x4D SWAP2 SWAP1 PUSH2 0x23A JUMP JUMPDEST PUSH1 0x40 MLOAD DUP1 SWAP2 SUB SWAP1 RETURN JUMPDEST PUSH2 0x70 PUSH1 0x4 DUP1 CALLDATASIZE SUB DUP2 ADD SWAP1 PUSH2 0x6B SWAP2 SWAP1 PUSH2 0x4E2 JUMP JUMPDEST PUSH2 0x95 JUMP JUMPDEST STOP JUMPDEST PUSH0 DUP1 SLOAD SWAP1 PUSH2 0x100 EXP SWAP1 DIV PUSH20 0xFFFFFFFFFFFFFFFFFFFFFFFFFFFFFFFFFFFFFFFF AND DUP2 JUMP JUMPDEST PUSH0 DUP1 SLOAD SWAP1 PUSH2 0x100 EXP SWAP1 DIV PUSH20 0xFFFFFFFFFFFFFFFFFFFFFFFFFFFFFFFFFFFFFFFF AND PUSH20 0xFFFFFFFFFFFFFFFFFFFFFFFFFFFFFFFFFFFFFFFF AND CALLER PUSH20 0xFFFFFFFFFFFFFFFFFFFFFFFFFFFFFFFFFFFFFFFF AND EQ PUSH2 0x122 JUMPI PUSH1 0x40 MLOAD PUSH32 0x8C379A000000000000000000000000000000000000000000000000000000000 DUP2 MSTORE PUSH1 0x4 ADD PUSH2 0x119 SWAP1 PUSH2 0x5D8 JUMP JUMPDEST PUSH1 0x40 MLOAD DUP1 SWAP2 SUB SWAP1 REVERT JUMPDEST DUP1 MLOAD DUP3 MLOAD EQ PUSH2 0x166 JUMPI PUSH1 0x40 MLOAD PUSH32 0x8C379A000000000000000000000000000000000000000000000000000000000 DUP2 MSTORE PUSH1 0x4 ADD PUSH2 0x15D SWAP1 PUSH2 0x666 JUMP JUMPDEST PUSH1 0x40 MLOAD DUP1 SWAP2 SUB SWAP1 REVERT JUMPDEST PUSH0 JUMPDEST DUP3 MLOAD DUP2 LT ISZERO PUSH2 0x1F6 JUMPI DUP3 DUP2 DUP2 MLOAD DUP2 LT PUSH2 0x184 JUMPI PUSH2 0x183 PUSH2 0x684 JUMP JUMPDEST JUMPDEST PUSH1 0x20 MUL PUSH1 0x20 ADD ADD MLOAD PUSH20 0xFFFFFFFFFFFFFFFFFFFFFFFFFFFFFFFFFFFFFFFF AND PUSH2 0x8FC DUP4 DUP4 DUP2 MLOAD DUP2 LT PUSH2 0x1B8 JUMPI PUSH2 0x1B7 PUSH2 0x684 JUMP JUMPDEST JUMPDEST PUSH1 0x20 MUL PUSH1 0x20 ADD ADD MLOAD SWAP1 DUP2 ISZERO MUL SWAP1 PUSH1 0x40 MLOAD PUSH0 PUSH1 0x40 MLOAD DUP1 DUP4 SUB DUP2 DUP6 DUP9 DUP9 CALL SWAP4 POP POP POP POP ISZERO DUP1 ISZERO PUSH2 0x1E8 JUMPI RETURNDATASIZE PUSH0 DUP1 RETURNDATACOPY RETURNDATASIZE PUSH0 REVERT JUMPDEST POP DUP1 DUP1 PUSH1 0x1 ADD SWAP2 POP POP PUSH2 0x168 JUMP JUMPDEST POP POP POP JUMP JUMPDEST PUSH0 PUSH20 0xFFFFFFFFFFFFFFFFFFFFFFFFFFFFFFFFFFFFFFFF DUP3 AND SWAP1 POP SWAP2 SWAP1 POP JUMP JUMPDEST PUSH0 PUSH2 0x224 DUP3 PUSH2 0x1FB JUMP JUMPDEST SWAP1 POP SWAP2 SWAP1 POP JUMP JUMPDEST PUSH2 0x234 DUP2 PUSH2 0x21A JUMP JUMPDEST DUP3 MSTORE POP POP JUMP JUMPDEST PUSH0 PUSH1 0x20 DUP3 ADD SWAP1 POP PUSH2 0x24D PUSH0 DUP4 ADD DUP5 PUSH2 0x22B JUMP JUMPDEST SWAP3 SWAP2 POP POP JUMP JUMPDEST PUSH0 PUSH1 0x40 MLOAD SWAP1 POP SWAP1 JUMP JUMPDEST PUSH0 DUP1 REVERT JUMPDEST PUSH0 DUP1 REVERT JUMPDEST PUSH0 DUP1 REVERT JUMPDEST PUSH0 PUSH1 0x1F NOT PUSH1 0x1F DUP4 ADD AND SWAP1 POP SWAP2 SWAP1 POP JUMP JUMPDEST PUSH32 0x4E487B7100000000000000000000000000000000000000000000000000000000 PUSH0 MSTORE PUSH1 0x41 PUSH1 0x4 MSTORE PUSH1 0x24 PUSH0 REVERT JUMPDEST PUSH2 0x2AE DUP3 PUSH2 0x268 JUMP JUMPDEST DUP2 ADD DUP2 DUP2 LT PUSH8 0xFFFFFFFFFFFFFFFF DUP3 GT OR ISZERO PUSH2 0x2CD JUMPI PUSH2 0x2CC PUSH2 0x278 JUMP JUMPDEST JUMPDEST DUP1 PUSH1 0x40 MSTORE POP POP POP JUMP JUMPDEST PUSH0 PUSH2 0x2DF PUSH2 0x253 JUMP JUMPDEST SWAP1 POP PUSH2 0x2EB DUP3 DUP3 PUSH2 0x2A5 JUMP JUMPDEST SWAP2 SWAP1 POP JUMP JUMPDEST PUSH0 PUSH8 0xFFFFFFFFFFFFFFFF DUP3 GT ISZERO PUSH2 0x30A JUMPI PUSH2 0x309 PUSH2 0x278 JUMP JUMPDEST JUMPDEST PUSH1 0x20 DUP3 MUL SWAP1 POP PUSH1 0x20 DUP2 ADD SWAP1 POP SWAP2 SWAP1 POP JUMP JUMPDEST PUSH0 DUP1 REVERT JUMPDEST PUSH0 PUSH2 0x329 DUP3 PUSH2 0x1FB JUMP JUMPDEST SWAP1 POP SWAP2 SWAP1 POP JUMP JUMPDEST PUSH2 0x339 DUP2 PUSH2 0x31F JUMP JUMPDEST DUP2 EQ PUSH2 0x343 JUMPI PUSH0 DUP1 REVERT JUMPDEST POP JUMP JUMPDEST PUSH0 DUP2 CALLDATALOAD SWAP1 POP PUSH2 0x354 DUP2 PUSH2 0x330 JUMP JUMPDEST SWAP3 SWAP2 POP POP JUMP JUMPDEST PUSH0 PUSH2 0x36C PUSH2 0x367 DUP5 PUSH2 0x2F0 JUMP JUMPDEST PUSH2 0x2D6 JUMP JUMPDEST SWAP1 POP DUP1 DUP4 DUP3 MSTORE PUSH1 0x20 DUP3 ADD SWAP1 POP PUSH1 0x20 DUP5 MUL DUP4 ADD DUP6 DUP2 GT ISZERO PUSH2 0x38F JUMPI PUSH2 0x38E PUSH2 0x31B JUMP JUMPDEST JUMPDEST DUP4 JUMPDEST DUP2 DUP2 LT ISZERO PUSH2 0x3B8 JUMPI DUP1 PUSH2 0x3A4 DUP9 DUP3 PUSH2 0x346 JUMP JUMPDEST DUP5 MSTORE PUSH1 0x20 DUP5 ADD SWAP4 POP POP PUSH1 0x20 DUP2 ADD SWAP1 POP PUSH2 0x391 JUMP JUMPDEST POP POP POP SWAP4 SWAP3 POP POP POP JUMP JUMPDEST PUSH0 DUP3 PUSH1 0x1F DUP4 ADD SLT PUSH2 0x3D6 JUMPI PUSH2 0x3D5 PUSH2 0x264 JUMP JUMPDEST JUMPDEST DUP2 CALLDATALOAD PUSH2 0x3E6 DUP5 DUP3 PUSH1 0x20 DUP7 ADD PUSH2 0x35A JUMP JUMPDEST SWAP2 POP POP SWAP3 SWAP2 POP POP JUMP JUMPDEST PUSH0 PUSH8 0xFFFFFFFFFFFFFFFF DUP3 GT ISZERO PUSH2 0x409 JUMPI PUSH2 0x408 PUSH2 0x278 JUMP JUMPDEST JUMPDEST PUSH1 0x20 DUP3 MUL SWAP1 POP PUSH1 0x20 DUP2 ADD SWAP1 POP SWAP2 SWAP1 POP JUMP JUMPDEST PUSH0 DUP2 SWAP1 POP SWAP2 SWAP1 POP JUMP JUMPDEST PUSH2 0x42C DUP2 PUSH2 0x41A JUMP JUMPDEST DUP2 EQ PUSH2 0x436 JUMPI PUSH0 DUP1 REVERT JUMPDEST POP JUMP JUMPDEST PUSH0 DUP2 CALLDATALOAD SWAP1 POP PUSH2 0x447 DUP2 PUSH2 0x423 JUMP JUMPDEST SWAP3 SWAP2 POP POP JUMP JUMPDEST PUSH0 PUSH2 0x45F PUSH2 0x45A DUP5 PUSH2 0x3EF JUMP JUMPDEST PUSH2 0x2D6 JUMP JUMPDEST SWAP1 POP DUP1 DUP4 DUP3 MSTORE PUSH1 0x20 DUP3 ADD SWAP1 POP PUSH1 0x20 DUP5 MUL DUP4 ADD DUP6 DUP2 GT ISZERO PUSH2 0x482 JUMPI PUSH2 0x481 PUSH2 0x31B JUMP JUMPDEST JUMPDEST DUP4 JUMPDEST DUP2 DUP2 LT ISZERO PUSH2 0x4AB JUMPI DUP1 PUSH2 0x497 DUP9 DUP3 PUSH2 0x439 JUMP JUMPDEST DUP5 MSTORE PUSH1 0x20 DUP5 ADD SWAP4 POP POP PUSH1 0x20 DUP2 ADD SWAP1 POP PUSH2 0x484 JUMP JUMPDEST POP POP POP SWAP4 SWAP3 POP POP POP JUMP JUMPDEST PUSH0 DUP3 PUSH1 0x1F DUP4 ADD SLT PUSH2 0x4C9 JUMPI PUSH2 0x4C8 PUSH2 0x264 JUMP JUMPDEST JUMPDEST DUP2 CALLDATALOAD PUSH2 0x4D9 DUP5 DUP3 PUSH1 0x20 DUP7 ADD PUSH2 0x44D JUMP JUMPDEST SWAP2 POP POP SWAP3 SWAP2 POP POP JUMP JUMPDEST PUSH0 DUP1 PUSH1 0x40 DUP4 DUP6 SUB SLT ISZERO PUSH2 0x4F8 JUMPI PUSH2 0x4F7 PUSH2 0x25C JUMP JUMPDEST JUMPDEST PUSH0 DUP4 ADD CALLDATALOAD PUSH8 0xFFFFFFFFFFFFFFFF DUP2 GT ISZERO PUSH2 0x515 JUMPI PUSH2 0x514 PUSH2 0x260 JUMP JUMPDEST JUMPDEST PUSH2 0x521 DUP6 DUP3 DUP7 ADD PUSH2 0x3C2 JUMP JUMPDEST SWAP3 POP POP PUSH1 0x20 DUP4 ADD CALLDATALOAD PUSH8 0xFFFFFFFFFFFFFFFF DUP2 GT ISZERO PUSH2 0x542 JUMPI PUSH2 0x541 PUSH2 0x260 JUMP JUMPDEST JUMPDEST PUSH2 0x54E DUP6 DUP3 DUP7 ADD PUSH2 0x4B5 JUMP JUMPDEST SWAP2 POP POP SWAP3 POP SWAP3 SWAP1 POP JUMP JUMPDEST PUSH0 DUP3 DUP3 MSTORE PUSH1 0x20 DUP3 ADD SWAP1 POP SWAP3 SWAP2 POP POP JUMP JUMPDEST PUSH32 0x536F6C6F20656C2070726F706965746172696F20707565646520656E76696172 PUSH0 DUP3 ADD MSTORE PUSH32 0x2064696E65726F00000000000000000000000000000000000000000000000000 PUSH1 0x20 DUP3 ADD MSTORE POP JUMP JUMPDEST PUSH0 PUSH2 0x5C2 PUSH1 0x27 DUP4 PUSH2 0x558 JUMP JUMPDEST SWAP2 POP PUSH2 0x5CD DUP3 PUSH2 0x568 JUMP JUMPDEST PUSH1 0x40 DUP3 ADD SWAP1 POP SWAP2 SWAP1 POP JUMP JUMPDEST PUSH0 PUSH1 0x20 DUP3 ADD SWAP1 POP DUP2 DUP2 SUB PUSH0 DUP4 ADD MSTORE PUSH2 0x5EF DUP2 PUSH2 0x5B6 JUMP JUMPDEST SWAP1 POP SWAP2 SWAP1 POP JUMP JUMPDEST PUSH32 0x746F206F20656C20616D6F756E74206465206C61732061727261797320736965 PUSH0 DUP3 ADD MSTORE PUSH32 0x6D70726520646562656E2073657220696775616C657300000000000000000000 PUSH1 0x20 DUP3 ADD MSTORE POP JUMP JUMPDEST PUSH0 PUSH2 0x650 PUSH1 0x36 DUP4 PUSH2 0x558 JUMP JUMPDEST SWAP2 POP PUSH2 0x65B DUP3 PUSH2 0x5F6 JUMP JUMPDEST PUSH1 0x40 DUP3 ADD SWAP1 POP SWAP2 SWAP1 POP JUMP JUMPDEST PUSH0 PUSH1 0x20 DUP3 ADD SWAP1 POP DUP2 DUP2 SUB PUSH0 DUP4 ADD MSTORE PUSH2 0x67D DUP2 PUSH2 0x644 JUMP JUMPDEST SWAP1 POP SWAP2 SWAP1 POP JUMP JUMPDEST PUSH32 0x4E487B7100000000000000000000000000000000000000000000000000000000 PUSH0 MSTORE PUSH1 0x32 PUSH1 0x4 MSTORE PUSH1 0x24 PUSH0 REVERT INVALID LOG2 PUSH5 0x6970667358 0x22 SLT KECCAK256 MOD 0xE5 RETURN 0xD8 BALANCE PC MCOPY SWAP4 LOG1 SDIV 0xD7 0xE2 AND PUSH16 0x5F86652C08406092895809C0330164C4 ISZERO MSTORE8 PUSH5 0x736F6C6343 STOP ADDMOD BYTE STOP CALLER "
				},
				"gasEstimates": {
					"creation": {
						"codeDepositCost": "353400",
						"executionCost": "infinite",
						"totalCost": "infinite"
					},
					"external": {
						"owner()": "2483",
						"send(address[],uint256[])": "infinite"
					}
				},
				"methodIdentifiers": {
					"owner()": "8da5cb5b",
					"send(address[],uint256[])": "a645ff5f"
				}
			},
			"storageLayout": {
				"storage": [
					{
						"astId": 3,
						"contract": "Conceptos/Splitpayment.sol:Splipayment",
						"label": "owner",
						"offset": 0,
						"slot": "0",
						"type": "t_address"
					}
				],
				"types": {
					"t_address": {
						"encoding": "inplace",
						"label": "address",
						"numberOfBytes": "20"
					}
				}
			},
			"userdoc": {
				"kind": "user",
				"methods": {},
				"version": 1
			}
		}
	}
}